{
  "contractName": "DidLedger",
  "abi": [
    {
      "constant": true,
      "inputs": [
        {
          "name": "",
          "type": "string"
        }
      ],
      "name": "nonce",
      "outputs": [
        {
          "name": "",
          "type": "uint256"
        }
      ],
      "payable": false,
      "stateMutability": "view",
      "type": "function"
    },
    {
      "constant": false,
      "inputs": [],
      "name": "create",
      "outputs": [],
      "payable": false,
      "stateMutability": "nonpayable",
      "type": "function"
    },
    {
      "constant": false,
      "inputs": [
        {
          "name": "did",
          "type": "string"
        },
        {
          "name": "delegate",
          "type": "string"
        },
        {
          "name": "v",
          "type": "uint8"
        },
        {
          "name": "r",
          "type": "bytes32"
        },
        {
          "name": "s",
          "type": "bytes32"
        }
      ],
      "name": "setControllerBySign",
      "outputs": [],
      "payable": false,
      "stateMutability": "nonpayable",
      "type": "function"
    },
    {
      "constant": false,
      "inputs": [
        {
          "name": "did",
          "type": "string"
        },
        {
          "name": "delegate",
          "type": "string"
        }
      ],
      "name": "setController",
      "outputs": [],
      "payable": false,
      "stateMutability": "nonpayable",
      "type": "function"
    },
    {
      "constant": false,
      "inputs": [
        {
          "name": "did",
          "type": "string"
        },
        {
          "name": "pubKey",
          "type": "string"
        },
        {
          "name": "controller",
          "type": "string"
        },
        {
          "name": "v",
          "type": "uint8"
        },
        {
          "name": "r",
          "type": "bytes32"
        },
        {
          "name": "s",
          "type": "bytes32"
        }
      ],
      "name": "addPubKeyBySign",
      "outputs": [],
      "payable": false,
      "stateMutability": "nonpayable",
      "type": "function"
    },
    {
      "constant": false,
      "inputs": [
        {
          "name": "did",
          "type": "string"
        },
        {
          "name": "pubKey",
          "type": "string"
        },
        {
          "name": "controller",
          "type": "string"
        }
      ],
      "name": "addPubKey",
      "outputs": [],
      "payable": false,
      "stateMutability": "nonpayable",
      "type": "function"
    },
    {
      "constant": false,
      "inputs": [
        {
          "name": "did",
          "type": "string"
        },
        {
          "name": "addr",
          "type": "address"
        },
        {
          "name": "controller",
          "type": "string"
        },
        {
          "name": "v",
          "type": "uint8"
        },
        {
          "name": "r",
          "type": "bytes32"
        },
        {
          "name": "s",
          "type": "bytes32"
        }
      ],
      "name": "addAddrKeyBySign",
      "outputs": [],
      "payable": false,
      "stateMutability": "nonpayable",
      "type": "function"
    },
    {
      "constant": false,
      "inputs": [
        {
          "name": "did",
          "type": "string"
        },
        {
          "name": "addr",
          "type": "address"
        },
        {
          "name": "controller",
          "type": "string"
        }
      ],
      "name": "addAddrKey",
      "outputs": [],
      "payable": false,
      "stateMutability": "nonpayable",
      "type": "function"
    },
    {
      "constant": false,
      "inputs": [
        {
          "name": "did",
          "type": "string"
        },
        {
          "name": "scvID",
          "type": "string"
        },
        {
          "name": "scvType",
          "type": "string"
        },
        {
          "name": "scvEndpoint",
          "type": "string"
        },
        {
          "name": "v",
          "type": "uint8"
        },
        {
          "name": "r",
          "type": "bytes32"
        },
        {
          "name": "s",
          "type": "bytes32"
        }
      ],
      "name": "addServiceBySign",
      "outputs": [],
      "payable": false,
      "stateMutability": "nonpayable",
      "type": "function"
    },
    {
      "constant": false,
      "inputs": [
        {
          "name": "did",
          "type": "string"
        },
        {
          "name": "scvID",
          "type": "string"
        },
        {
          "name": "hashVal",
          "type": "string"
        },
        {
          "name": "v",
          "type": "uint8"
        },
        {
          "name": "r",
          "type": "bytes32"
        },
        {
          "name": "s",
          "type": "bytes32"
        }
      ],
      "name": "updatePrivacy",
      "outputs": [],
      "payable": false,
      "stateMutability": "nonpayable",
      "type": "function"
    },
    {
      "constant": false,
      "inputs": [
        {
          "name": "did",
          "type": "string"
        },
        {
          "name": "scvID",
          "type": "string"
        },
        {
          "name": "hashVal",
          "type": "string"
        }
      ],
      "name": "updatePrivacy",
      "outputs": [],
      "payable": false,
      "stateMutability": "nonpayable",
      "type": "function"
    },
    {
      "constant": false,
      "inputs": [
        {
          "name": "did",
          "type": "string"
        },
        {
          "name": "scvID",
          "type": "string"
        },
        {
          "name": "scvType",
          "type": "string"
        },
        {
          "name": "scvEndpoint",
          "type": "string"
        }
      ],
      "name": "addService",
      "outputs": [],
      "payable": false,
      "stateMutability": "nonpayable",
      "type": "function"
    },
    {
      "constant": false,
      "inputs": [
        {
          "name": "did",
          "type": "string"
        },
        {
          "name": "targetId",
          "type": "string"
        },
        {
          "name": "v",
          "type": "uint8"
        },
        {
          "name": "r",
          "type": "bytes32"
        },
        {
          "name": "s",
          "type": "bytes32"
        }
      ],
      "name": "disableKey",
      "outputs": [],
      "payable": false,
      "stateMutability": "nonpayable",
      "type": "function"
    },
    {
      "constant": false,
      "inputs": [
        {
          "name": "did",
          "type": "string"
        },
        {
          "name": "targetId",
          "type": "string"
        }
      ],
      "name": "disableKey",
      "outputs": [],
      "payable": false,
      "stateMutability": "nonpayable",
      "type": "function"
    },
    {
      "constant": false,
      "inputs": [
        {
          "name": "did",
          "type": "string"
        },
        {
          "name": "targetId",
          "type": "string"
        }
      ],
      "name": "disableService",
      "outputs": [],
      "payable": false,
      "stateMutability": "nonpayable",
      "type": "function"
    },
    {
      "constant": false,
      "inputs": [
        {
          "name": "did",
          "type": "string"
        },
        {
          "name": "targetId",
          "type": "string"
        },
        {
          "name": "v",
          "type": "uint8"
        },
        {
          "name": "r",
          "type": "bytes32"
        },
        {
          "name": "s",
          "type": "bytes32"
        }
      ],
      "name": "disableService",
      "outputs": [],
      "payable": false,
      "stateMutability": "nonpayable",
      "type": "function"
    },
    {
      "constant": false,
      "inputs": [
        {
          "name": "did",
          "type": "string"
        }
      ],
      "name": "deactivatedDom",
      "outputs": [],
      "payable": false,
      "stateMutability": "nonpayable",
      "type": "function"
    },
    {
      "constant": true,
      "inputs": [
        {
          "name": "did",
          "type": "string"
        }
      ],
      "name": "getDocument",
      "outputs": [
        {
          "components": [
            {
              "name": "contexts",
              "type": "string[]"
            },
            {
              "name": "id",
              "type": "string"
            },
            {
              "name": "controller",
              "type": "string"
            },
            {
              "components": [
                {
                  "name": "id",
                  "type": "string"
                },
                {
                  "name": "keyType",
                  "type": "string"
                },
                {
                  "name": "controller",
                  "type": "string"
                },
                {
                  "name": "pubKeyData",
                  "type": "string"
                },
                {
                  "name": "disable",
                  "type": "bool"
                }
              ],
              "name": "publicKeys",
              "type": "tuple[]"
            },
            {
              "components": [
                {
                  "name": "id",
                  "type": "string"
                },
                {
                  "name": "serviceType",
                  "type": "string"
                },
                {
                  "name": "serviceEndPoint",
                  "type": "string"
                },
                {
                  "name": "disable",
                  "type": "bool"
                }
              ],
              "name": "services",
              "type": "tuple[]"
            },
            {
              "components": [
                {
                  "name": "scvID",
                  "type": "string"
                },
                {
                  "name": "hashVal",
                  "type": "string"
                }
              ],
              "name": "privacy",
              "type": "tuple"
            }
          ],
          "name": "",
          "type": "tuple"
        }
      ],
      "payable": false,
      "stateMutability": "view",
      "type": "function"
    }
  ],
  "bytecode": "0x608060405234801561001057600080fd5b5061549b806100206000396000f3fe608060405234801561001057600080fd5b50600436106101165760003560e01c8063ac545ca9116100a2578063d4b7bcce11610071578063d4b7bcce1461029b578063e81ee740146102b7578063efb9f468146102d3578063efc81a8c146102ef578063fc14e4ee146102f957610116565b8063ac545ca91461022b578063ba4cea1a14610247578063bea8348814610263578063d32204631461027f57610116565b806335e80784116100e957806335e807841461018b57806355d6108c146101a75780637ccb6a64146101c35780637fd1ed16146101f35780639d3c56f71461020f57610116565b80630ac0925c1461011b5780631ea827ae14610137578063237aa75a146101535780632580a2fe1461016f575b600080fd5b61013560048036036101309190810190614892565b610329565b005b610151600480360361014c91908101906144fd565b61037c565b005b61016d60048036036101689190810190614892565b61038b565b005b610189600480360361018491908101906147c1565b6103de565b005b6101a560048036036101a091908101906147c1565b610433565b005b6101c160048036036101bc9190810190614569565b610488565b005b6101dd60048036036101d89190810190614343565b610499565b6040516101ea9190615139565b60405180910390f35b61020d60048036036102089190810190614343565b610f56565b005b61022960048036036102249190810190614569565b611305565b005b610245600480360361024091908101906143c5565b611316565b005b610261600480360361025c9190810190614444565b611327565b005b61027d600480360361027891908101906144fd565b61137c565b005b610299600480360361029491908101906144fd565b61138b565b005b6102b560048036036102b091908101906146c3565b61139a565b005b6102d160048036036102cc9190810190614600565b6113f1565b005b6102ed60048036036102e89190810190614892565b611404565b005b6102f7611457565b005b610313600480360361030e9190810190614302565b61197c565b604051610320919061515b565b60405180910390f35b6103758585610370886040518060400160405280600d81526020017f736574436f6e74726f6c6c6572000000000000000000000000000000000000008152508888886119aa565b611ae9565b5050505050565b610387828233611ed2565b5050565b6103d785856103d2886040518060400160405280600a81526020017f64697361626c654b6579000000000000000000000000000000000000000000008152508888886119aa565b612443565b5050505050565b61042b8686866104268a6040518060400160405280600981526020017f6164645075624b657900000000000000000000000000000000000000000000008152508989896119aa565b6129b4565b505050505050565b61048086868661047b8a6040518060400160405280600d81526020017f75706461746550726976616379000000000000000000000000000000000000008152508989896119aa565b612fd8565b505050505050565b610494838383336129b4565b505050565b6104a1613f49565b8173__DidUtils______________________________63d06c84df826040518263ffffffff1660e01b81526004016104d99190614f61565b60206040518083038186803b1580156104f157600080fd5b505af4158015610505573d6000803e3d6000fd5b505050506040513d601f19601f8201168201806040525061052991908101906142b0565b610568576040517f08c379a000000000000000000000000000000000000000000000000000000000815260040161055f906150b9565b60405180910390fd5b610570613f49565b6000846040516105809190614ecf565b90815260200160405180910390206040518060c001604052908160008201805480602002602001604051908101604052809291908181526020016000905b8282101561067a578382906000526020600020018054600181600116156101000203166002900480601f0160208091040260200160405190810160405280929190818152602001828054600181600116156101000203166002900480156106665780601f1061063b57610100808354040283529160200191610666565b820191906000526020600020905b81548152906001019060200180831161064957829003601f168201915b5050505050815260200190600101906105be565b505050508152602001600182018054600181600116156101000203166002900480601f01602080910402602001604051908101604052809291908181526020018280546001816001161561010002031660029004801561071b5780601f106106f05761010080835404028352916020019161071b565b820191906000526020600020905b8154815290600101906020018083116106fe57829003601f168201915b50505050508152602001600282018054600181600116156101000203166002900480601f0160208091040260200160405190810160405280929190818152602001828054600181600116156101000203166002900480156107bd5780601f10610792576101008083540402835291602001916107bd565b820191906000526020600020905b8154815290600101906020018083116107a057829003601f168201915b5050505050815260200160038201805480602002602001604051908101604052809291908181526020016000905b82821015610ac057838290600052602060002090600502016040518060a0016040529081600082018054600181600116156101000203166002900480601f0160208091040260200160405190810160405280929190818152602001828054600181600116156101000203166002900480156108a75780601f1061087c576101008083540402835291602001916108a7565b820191906000526020600020905b81548152906001019060200180831161088a57829003601f168201915b50505050508152602001600182018054600181600116156101000203166002900480601f0160208091040260200160405190810160405280929190818152602001828054600181600116156101000203166002900480156109495780601f1061091e57610100808354040283529160200191610949565b820191906000526020600020905b81548152906001019060200180831161092c57829003601f168201915b50505050508152602001600282018054600181600116156101000203166002900480601f0160208091040260200160405190810160405280929190818152602001828054600181600116156101000203166002900480156109eb5780601f106109c0576101008083540402835291602001916109eb565b820191906000526020600020905b8154815290600101906020018083116109ce57829003601f168201915b50505050508152602001600382018054600181600116156101000203166002900480601f016020809104026020016040519081016040528092919081815260200182805460018160011615610100020316600290048015610a8d5780601f10610a6257610100808354040283529160200191610a8d565b820191906000526020600020905b815481529060010190602001808311610a7057829003601f168201915b505050505081526020016004820160009054906101000a900460ff161515151581525050815260200190600101906107eb565b50505050815260200160048201805480602002602001604051908101604052809291908181526020016000905b82821015610d205783829060005260206000209060040201604051806080016040529081600082018054600181600116156101000203166002900480601f016020809104026020016040519081016040528092919081815260200182805460018160011615610100020316600290048015610ba95780601f10610b7e57610100808354040283529160200191610ba9565b820191906000526020600020905b815481529060010190602001808311610b8c57829003601f168201915b50505050508152602001600182018054600181600116156101000203166002900480601f016020809104026020016040519081016040528092919081815260200182805460018160011615610100020316600290048015610c4b5780601f10610c2057610100808354040283529160200191610c4b565b820191906000526020600020905b815481529060010190602001808311610c2e57829003601f168201915b50505050508152602001600282018054600181600116156101000203166002900480601f016020809104026020016040519081016040528092919081815260200182805460018160011615610100020316600290048015610ced5780601f10610cc257610100808354040283529160200191610ced565b820191906000526020600020905b815481529060010190602001808311610cd057829003601f168201915b505050505081526020016003820160009054906101000a900460ff16151515158152505081526020019060010190610aed565b50505050815260200160058201604051806040016040529081600082018054600181600116156101000203166002900480601f016020809104026020016040519081016040528092919081815260200182805460018160011615610100020316600290048015610dd15780601f10610da657610100808354040283529160200191610dd1565b820191906000526020600020905b815481529060010190602001808311610db457829003601f168201915b50505050508152602001600182018054600181600116156101000203166002900480601f016020809104026020016040519081016040528092919081815260200182805460018160011615610100020316600290048015610e735780601f10610e4857610100808354040283529160200191610e73565b820191906000526020600020905b815481529060010190602001808311610e5657829003601f168201915b50505050508152505081525050905060008090505b816080015151811015610ee65781608001518181518110610ea557fe5b60200260200101516060015115610ed95781608001518181518110610ec657fe5b60200260200101610ed5613f85565b8152505b8080600101915050610e88565b5060008090505b816060015151811015610f4b5781606001518181518110610f0a57fe5b60200260200101516080015115610f3e5781606001518181518110610f2b57fe5b60200260200101610f3a613faf565b8152505b8080600101915050610eed565b508092505050919050565b8073__DidUtils______________________________63d06c84df826040518263ffffffff1660e01b8152600401610f8e9190614f61565b60206040518083038186803b158015610fa657600080fd5b505af4158015610fba573d6000803e3d6000fd5b505050506040513d601f19601f82011682018060405250610fde91908101906142b0565b61101d576040517f08c379a0000000000000000000000000000000000000000000000000000000008152600401611014906150b9565b60405180910390fd5b816001600281111561102b57fe5b60018260405161103b9190614ecf565b908152602001604051809103902060009054906101000a900460ff16600281111561106257fe5b146110a2576040517f08c379a0000000000000000000000000000000000000000000000000000000008152600401611099906150f9565b60405180910390fd5b8233606073__DidUtils______________________________63596c7e35836040518263ffffffff1660e01b81526004016110dd9190614ee6565b60006040518083038186803b1580156110f557600080fd5b505af4158015611109573d6000803e3d6000fd5b505050506040513d6000823e3d601f19601f820116820180604052506111329190810190614384565b905060606000846040516111469190614ecf565b90815260200160405180910390206002018054600181600116156101000203166002900480601f0160208091040260200160405190810160405280929190818152602001828054600181600116156101000203166002900480156111eb5780601f106111c0576101008083540402835291602001916111eb565b820191906000526020600020905b8154815290600101906020018083116111ce57829003601f168201915b5050505050905073__DidUtils______________________________63c754a53a8584846040518463ffffffff1660e01b815260040161122d9392919061503d565b60206040518083038186803b15801561124557600080fd5b505af4158015611259573d6000803e3d6000fd5b505050506040513d601f19601f8201168201806040525061127d91908101906142b0565b6112bc576040517f08c379a00000000000000000000000000000000000000000000000000000000081526004016112b3906150d9565b60405180910390fd5b60026001886040516112ce9190614ecf565b908152602001604051809103902060006101000a81548160ff021916908360028111156112f757fe5b021790555050505050505050565b61131183838333612fd8565b505050565b6113228383833361344f565b505050565b61137486868661136f8a6040518060400160405280600a81526020017f616464416464724b6579000000000000000000000000000000000000000000008152508989896119aa565b61344f565b505050505050565b611387828233611ae9565b5050565b611396828233612443565b5050565b6113e8878787876113e38c6040518060400160405280600a81526020017f61646453657276696365000000000000000000000000000000000000000000008152508a8a8a6119aa565b613a59565b50505050505050565b6113fe8484848433613a59565b50505050565b611450858561144b886040518060400160405280600e81526020017f64697361626c65536572766963650000000000000000000000000000000000008152508888886119aa565b611ed2565b5050505050565b606073__DidUtils______________________________63596c7e35336040518263ffffffff1660e01b81526004016114909190614f01565b60006040518083038186803b1580156114a857600080fd5b505af41580156114bc573d6000803e3d6000fd5b505050506040513d6000823e3d601f19601f820116820180604052506114e59190810190614384565b9050600060028111156114f457fe5b6001826040516115049190614ecf565b908152602001604051809103902060009054906101000a900460ff16600281111561152b57fe5b1461156b576040517f08c379a000000000000000000000000000000000000000000000000000000000815260040161156290615119565b60405180910390fd5b606073__DidUtils______________________________63596c7e35336040518263ffffffff1660e01b81526004016115a49190614f01565b60006040518083038186803b1580156115bc57600080fd5b505af41580156115d0573d6000803e3d6000fd5b505050506040513d6000823e3d601f19601f820116820180604052506115f99190810190614384565b9050606073__DidUtils______________________________63a4d1444c8360016040518363ffffffff1660e01b8152600401611637929190614fd6565b60006040518083038186803b15801561164f57600080fd5b505af4158015611663573d6000803e3d6000fd5b505050506040513d6000823e3d601f19601f8201168201806040525061168c9190810190614384565b9050606073__DidUtils______________________________63bbec1843336040518263ffffffff1660e01b81526004016116c79190614f01565b60006040518083038186803b1580156116df57600080fd5b505af41580156116f3573d6000803e3d6000fd5b505050506040513d6000823e3d601f19601f8201168201806040525061171c9190810190614384565b905060606040518060400160405280602081526020017f4563647361536563703235366b315265636f766572794d6574686f64323032308152509050611760613fe0565b6040518060a0016040528085815260200183815260200186815260200184815260200160001515815250905060008560405161179c9190614ecf565b90815260200160405180910390206000018060018154018082558091505090600182039060005260206000200160006040518060400160405280601c81526020017f68747470733a2f2f7777772e77332e6f72672f6e732f6469642f76310000000081525090919091509080519060200190611819929190614011565b50508460008660405161182c9190614ecf565b90815260200160405180910390206001019080519060200190611850929190614011565b506000856040516118619190614ecf565b9081526020016040518091039020600301819080600181540180825580915050906001820390600052602060002090600502016000909192909190915060008201518160000190805190602001906118ba929190614091565b5060208201518160010190805190602001906118d7929190614091565b5060408201518160020190805190602001906118f4929190614091565b506060820151816003019080519060200190611911929190614091565b5060808201518160040160006101000a81548160ff021916908315150217905550505050600180866040516119469190614ecf565b908152602001604051809103902060006101000a81548160ff0219169083600281111561196f57fe5b0217905550505050505050565b6002818051602081018201805184825260208301602085012081835280955050505050506000915090505481565b60008073__DidUtils______________________________6356b79f61873060028b6040516119d99190614ecf565b9081526020016040518091039020548b6040518563ffffffff1660e01b8152600401611a089493929190614f83565b60206040518083038186803b158015611a2057600080fd5b505af4158015611a34573d6000803e3d6000fd5b505050506040513d601f19601f82011682018060405250611a5891908101906142d9565b9050600060018287878760405160008152602001604052604051611a7f9493929190614f1c565b6020604051602081039080840390855afa158015611aa1573d6000803e3d6000fd5b505050602060405103519050600288604051611abd9190614ecf565b908152602001604051809103902060008154809291906001019190505550809250505095945050505050565b8273__DidUtils______________________________63d06c84df826040518263ffffffff1660e01b8152600401611b219190614f61565b60206040518083038186803b158015611b3957600080fd5b505af4158015611b4d573d6000803e3d6000fd5b505050506040513d601f19601f82011682018060405250611b7191908101906142b0565b611bb0576040517f08c379a0000000000000000000000000000000000000000000000000000000008152600401611ba7906150b9565b60405180910390fd5b8273__DidUtils______________________________63d06c84df826040518263ffffffff1660e01b8152600401611be89190614f61565b60206040518083038186803b158015611c0057600080fd5b505af4158015611c14573d6000803e3d6000fd5b505050506040513d601f19601f82011682018060405250611c3891908101906142b0565b611c77576040517f08c379a0000000000000000000000000000000000000000000000000000000008152600401611c6e906150b9565b60405180910390fd5b8483606073__DidUtils______________________________63596c7e35836040518263ffffffff1660e01b8152600401611cb29190614ee6565b60006040518083038186803b158015611cca57600080fd5b505af4158015611cde573d6000803e3d6000fd5b505050506040513d6000823e3d601f19601f82011682018060405250611d079190810190614384565b90506060600084604051611d1b9190614ecf565b90815260200160405180910390206002018054600181600116156101000203166002900480601f016020809104026020016040519081016040528092919081815260200182805460018160011615610100020316600290048015611dc05780601f10611d9557610100808354040283529160200191611dc0565b820191906000526020600020905b815481529060010190602001808311611da357829003601f168201915b5050505050905073__DidUtils______________________________63c754a53a8584846040518463ffffffff1660e01b8152600401611e029392919061503d565b60206040518083038186803b158015611e1a57600080fd5b505af4158015611e2e573d6000803e3d6000fd5b505050506040513d601f19601f82011682018060405250611e5291908101906142b0565b611e91576040517f08c379a0000000000000000000000000000000000000000000000000000000008152600401611e88906150d9565b60405180910390fd5b8760008a604051611ea29190614ecf565b90815260200160405180910390206002019080519060200190611ec6929190614011565b50505050505050505050565b8273__DidUtils______________________________63d06c84df826040518263ffffffff1660e01b8152600401611f0a9190614f61565b60206040518083038186803b158015611f2257600080fd5b505af4158015611f36573d6000803e3d6000fd5b505050506040513d601f19601f82011682018060405250611f5a91908101906142b0565b611f99576040517f08c379a0000000000000000000000000000000000000000000000000000000008152600401611f90906150b9565b60405180910390fd5b8360016002811115611fa757fe5b600182604051611fb79190614ecf565b908152602001604051809103902060009054906101000a900460ff166002811115611fde57fe5b1461201e576040517f08c379a0000000000000000000000000000000000000000000000000000000008152600401612015906150f9565b60405180910390fd5b8483606073__DidUtils______________________________63596c7e35836040518263ffffffff1660e01b81526004016120599190614ee6565b60006040518083038186803b15801561207157600080fd5b505af4158015612085573d6000803e3d6000fd5b505050506040513d6000823e3d601f19601f820116820180604052506120ae9190810190614384565b905060606000846040516120c29190614ecf565b90815260200160405180910390206002018054600181600116156101000203166002900480601f0160208091040260200160405190810160405280929190818152602001828054600181600116156101000203166002900480156121675780601f1061213c57610100808354040283529160200191612167565b820191906000526020600020905b81548152906001019060200180831161214a57829003601f168201915b5050505050905073__DidUtils______________________________63c754a53a8584846040518463ffffffff1660e01b81526004016121a99392919061503d565b60206040518083038186803b1580156121c157600080fd5b505af41580156121d5573d6000803e3d6000fd5b505050506040513d601f19601f820116820180604052506121f991908101906142b0565b612238576040517f08c379a000000000000000000000000000000000000000000000000000000000815260040161222f906150d9565b60405180910390fd5b60008090505b60008a60405161224e9190614ecf565b90815260200160405180910390206004018054905081101561243757606060008b60405161227c9190614ecf565b9081526020016040518091039020600401828154811061229857fe5b90600052602060002090600402016000018054600181600116156101000203166002900480601f01602080910402602001604051908101604052809291908181526020018280546001816001161561010002031660029004801561233d5780601f106123125761010080835404028352916020019161233d565b820191906000526020600020905b81548152906001019060200180831161232057829003601f168201915b5050505050905073__DidUtils______________________________6344dd41e7828c6040518363ffffffff1660e01b815260040161237d929190615006565b60206040518083038186803b15801561239557600080fd5b505af41580156123a9573d6000803e3d6000fd5b505050506040513d601f19601f820116820180604052506123cd91908101906142b0565b1561242957600160008c6040516123e49190614ecf565b9081526020016040518091039020600401838154811061240057fe5b906000526020600020906004020160030160006101000a81548160ff0219169083151502179055505b50808060010191505061223e565b50505050505050505050565b8273__DidUtils______________________________63d06c84df826040518263ffffffff1660e01b815260040161247b9190614f61565b60206040518083038186803b15801561249357600080fd5b505af41580156124a7573d6000803e3d6000fd5b505050506040513d601f19601f820116820180604052506124cb91908101906142b0565b61250a576040517f08c379a0000000000000000000000000000000000000000000000000000000008152600401612501906150b9565b60405180910390fd5b836001600281111561251857fe5b6001826040516125289190614ecf565b908152602001604051809103902060009054906101000a900460ff16600281111561254f57fe5b1461258f576040517f08c379a0000000000000000000000000000000000000000000000000000000008152600401612586906150f9565b60405180910390fd5b8483606073__DidUtils______________________________63596c7e35836040518263ffffffff1660e01b81526004016125ca9190614ee6565b60006040518083038186803b1580156125e257600080fd5b505af41580156125f6573d6000803e3d6000fd5b505050506040513d6000823e3d601f19601f8201168201806040525061261f9190810190614384565b905060606000846040516126339190614ecf565b90815260200160405180910390206002018054600181600116156101000203166002900480601f0160208091040260200160405190810160405280929190818152602001828054600181600116156101000203166002900480156126d85780601f106126ad576101008083540402835291602001916126d8565b820191906000526020600020905b8154815290600101906020018083116126bb57829003601f168201915b5050505050905073__DidUtils______________________________63c754a53a8584846040518463ffffffff1660e01b815260040161271a9392919061503d565b60206040518083038186803b15801561273257600080fd5b505af4158015612746573d6000803e3d6000fd5b505050506040513d601f19601f8201168201806040525061276a91908101906142b0565b6127a9576040517f08c379a00000000000000000000000000000000000000000000000000000000081526004016127a0906150d9565b60405180910390fd5b60008090505b60008a6040516127bf9190614ecf565b9081526020016040518091039020600301805490508110156129a857606060008b6040516127ed9190614ecf565b9081526020016040518091039020600301828154811061280957fe5b90600052602060002090600502016000018054600181600116156101000203166002900480601f0160208091040260200160405190810160405280929190818152602001828054600181600116156101000203166002900480156128ae5780601f10612883576101008083540402835291602001916128ae565b820191906000526020600020905b81548152906001019060200180831161289157829003601f168201915b5050505050905073__DidUtils______________________________6344dd41e7828c6040518363ffffffff1660e01b81526004016128ee929190615006565b60206040518083038186803b15801561290657600080fd5b505af415801561291a573d6000803e3d6000fd5b505050506040513d601f19601f8201168201806040525061293e91908101906142b0565b1561299a57600160008c6040516129559190614ecf565b9081526020016040518091039020600301838154811061297157fe5b906000526020600020906005020160040160006101000a81548160ff0219169083151502179055505b5080806001019150506127af565b50505050505050505050565b8373__DidUtils______________________________63d06c84df826040518263ffffffff1660e01b81526004016129ec9190614f61565b60206040518083038186803b158015612a0457600080fd5b505af4158015612a18573d6000803e3d6000fd5b505050506040513d601f19601f82011682018060405250612a3c91908101906142b0565b612a7b576040517f08c379a0000000000000000000000000000000000000000000000000000000008152600401612a72906150b9565b60405180910390fd5b8273__DidUtils______________________________63d06c84df826040518263ffffffff1660e01b8152600401612ab39190614f61565b60206040518083038186803b158015612acb57600080fd5b505af4158015612adf573d6000803e3d6000fd5b505050506040513d601f19601f82011682018060405250612b0391908101906142b0565b612b42576040517f08c379a0000000000000000000000000000000000000000000000000000000008152600401612b39906150b9565b60405180910390fd5b8560016002811115612b5057fe5b600182604051612b609190614ecf565b908152602001604051809103902060009054906101000a900460ff166002811115612b8757fe5b14612bc7576040517f08c379a0000000000000000000000000000000000000000000000000000000008152600401612bbe906150f9565b60405180910390fd5b8684606073__DidUtils______________________________63596c7e35836040518263ffffffff1660e01b8152600401612c029190614ee6565b60006040518083038186803b158015612c1a57600080fd5b505af4158015612c2e573d6000803e3d6000fd5b505050506040513d6000823e3d601f19601f82011682018060405250612c579190810190614384565b90506060600084604051612c6b9190614ecf565b90815260200160405180910390206002018054600181600116156101000203166002900480601f016020809104026020016040519081016040528092919081815260200182805460018160011615610100020316600290048015612d105780601f10612ce557610100808354040283529160200191612d10565b820191906000526020600020905b815481529060010190602001808311612cf357829003601f168201915b5050505050905073__DidUtils______________________________63c754a53a8584846040518463ffffffff1660e01b8152600401612d529392919061503d565b60206040518083038186803b158015612d6a57600080fd5b505af4158015612d7e573d6000803e3d6000fd5b505050506040513d601f19601f82011682018060405250612da291908101906142b0565b612de1576040517f08c379a0000000000000000000000000000000000000000000000000000000008152600401612dd8906150d9565b60405180910390fd5b6000808c604051612df29190614ecf565b9081526020016040518091039020600301805490509050606073__DidUtils______________________________63a4d1444c8e600185016040518363ffffffff1660e01b8152600401612e47929190615089565b60006040518083038186803b158015612e5f57600080fd5b505af4158015612e73573d6000803e3d6000fd5b505050506040513d6000823e3d601f19601f82011682018060405250612e9c9190810190614384565b9050606060405180606001604052806021815260200161544160219139905060008e604051612ecb9190614ecf565b90815260200160405180910390206003016040518060a001604052808481526020018381526020018e81526020018f815260200160001515815250908060018154018082558091505090600182039060005260206000209060050201600090919290919091506000820151816000019080519060200190612f4d929190614091565b506020820151816001019080519060200190612f6a929190614091565b506040820151816002019080519060200190612f87929190614091565b506060820151816003019080519060200190612fa4929190614091565b5060808201518160040160006101000a81548160ff0219169083151502179055505050505050505050505050505050505050565b8373__DidUtils______________________________63d06c84df826040518263ffffffff1660e01b81526004016130109190614f61565b60206040518083038186803b15801561302857600080fd5b505af415801561303c573d6000803e3d6000fd5b505050506040513d601f19601f8201168201806040525061306091908101906142b0565b61309f576040517f08c379a0000000000000000000000000000000000000000000000000000000008152600401613096906150b9565b60405180910390fd5b84600160028111156130ad57fe5b6001826040516130bd9190614ecf565b908152602001604051809103902060009054906101000a900460ff1660028111156130e457fe5b14613124576040517f08c379a000000000000000000000000000000000000000000000000000000000815260040161311b906150f9565b60405180910390fd5b8583606073__DidUtils______________________________63596c7e35836040518263ffffffff1660e01b815260040161315f9190614ee6565b60006040518083038186803b15801561317757600080fd5b505af415801561318b573d6000803e3d6000fd5b505050506040513d6000823e3d601f19601f820116820180604052506131b49190810190614384565b905060606000846040516131c89190614ecf565b90815260200160405180910390206002018054600181600116156101000203166002900480601f01602080910402602001604051908101604052809291908181526020018280546001816001161561010002031660029004801561326d5780601f106132425761010080835404028352916020019161326d565b820191906000526020600020905b81548152906001019060200180831161325057829003601f168201915b5050505050905073__DidUtils______________________________63c754a53a8584846040518463ffffffff1660e01b81526004016132af9392919061503d565b60206040518083038186803b1580156132c757600080fd5b505af41580156132db573d6000803e3d6000fd5b505050506040513d601f19601f820116820180604052506132ff91908101906142b0565b61333e576040517f08c379a0000000000000000000000000000000000000000000000000000000008152600401613335906150d9565b60405180910390fd5b606073__DidUtils______________________________63b01bd8178c8c6040518363ffffffff1660e01b8152600401613379929190615006565b60006040518083038186803b15801561339157600080fd5b505af41580156133a5573d6000803e3d6000fd5b505050506040513d6000823e3d601f19601f820116820180604052506133ce9190810190614384565b90508860008c6040516133e19190614ecf565b90815260200160405180910390206005016000019080519060200190613408929190614011565b508860008c60405161341a9190614ecf565b90815260200160405180910390206005016001019080519060200190613441929190614011565b505050505050505050505050565b8373__DidUtils______________________________63d06c84df826040518263ffffffff1660e01b81526004016134879190614f61565b60206040518083038186803b15801561349f57600080fd5b505af41580156134b3573d6000803e3d6000fd5b505050506040513d601f19601f820116820180604052506134d791908101906142b0565b613516576040517f08c379a000000000000000000000000000000000000000000000000000000000815260040161350d906150b9565b60405180910390fd5b846001600281111561352457fe5b6001826040516135349190614ecf565b908152602001604051809103902060009054906101000a900460ff16600281111561355b57fe5b1461359b576040517f08c379a0000000000000000000000000000000000000000000000000000000008152600401613592906150f9565b60405180910390fd5b8583606073__DidUtils______________________________63596c7e35836040518263ffffffff1660e01b81526004016135d69190614ee6565b60006040518083038186803b1580156135ee57600080fd5b505af4158015613602573d6000803e3d6000fd5b505050506040513d6000823e3d601f19601f8201168201806040525061362b9190810190614384565b9050606060008460405161363f9190614ecf565b90815260200160405180910390206002018054600181600116156101000203166002900480601f0160208091040260200160405190810160405280929190818152602001828054600181600116156101000203166002900480156136e45780601f106136b9576101008083540402835291602001916136e4565b820191906000526020600020905b8154815290600101906020018083116136c757829003601f168201915b5050505050905073__DidUtils______________________________63c754a53a8584846040518463ffffffff1660e01b81526004016137269392919061503d565b60206040518083038186803b15801561373e57600080fd5b505af4158015613752573d6000803e3d6000fd5b505050506040513d601f19601f8201168201806040525061377691908101906142b0565b6137b5576040517f08c379a00000000000000000000000000000000000000000000000000000000081526004016137ac906150d9565b60405180910390fd5b6000808b6040516137c69190614ecf565b9081526020016040518091039020600301805490509050606073__DidUtils______________________________63a4d1444c8d600185016040518363ffffffff1660e01b815260040161381b929190615089565b60006040518083038186803b15801561383357600080fd5b505af4158015613847573d6000803e3d6000fd5b505050506040513d6000823e3d601f19601f820116820180604052506138709190810190614384565b905060606040518060400160405280602081526020017f4563647361536563703235366b315265636f766572794d6574686f64323032308152509050606073__DidUtils______________________________63bbec18438e6040518263ffffffff1660e01b81526004016138e59190614ee6565b60006040518083038186803b1580156138fd57600080fd5b505af4158015613911573d6000803e3d6000fd5b505050506040513d6000823e3d601f19601f8201168201806040525061393a9190810190614384565b905060008e60405161394c9190614ecf565b90815260200160405180910390206003016040518060a001604052808581526020018481526020018e8152602001838152602001600015158152509080600181540180825580915050906001820390600052602060002090600502016000909192909190915060008201518160000190805190602001906139ce929190614091565b5060208201518160010190805190602001906139eb929190614091565b506040820151816002019080519060200190613a08929190614091565b506060820151816003019080519060200190613a25929190614091565b5060808201518160040160006101000a81548160ff0219169083151502179055505050505050505050505050505050505050565b8473__DidUtils______________________________63d06c84df826040518263ffffffff1660e01b8152600401613a919190614f61565b60206040518083038186803b158015613aa957600080fd5b505af4158015613abd573d6000803e3d6000fd5b505050506040513d601f19601f82011682018060405250613ae191908101906142b0565b613b20576040517f08c379a0000000000000000000000000000000000000000000000000000000008152600401613b17906150b9565b60405180910390fd5b8560016002811115613b2e57fe5b600182604051613b3e9190614ecf565b908152602001604051809103902060009054906101000a900460ff166002811115613b6557fe5b14613ba5576040517f08c379a0000000000000000000000000000000000000000000000000000000008152600401613b9c906150f9565b60405180910390fd5b8683606073__DidUtils______________________________63596c7e35836040518263ffffffff1660e01b8152600401613be09190614ee6565b60006040518083038186803b158015613bf857600080fd5b505af4158015613c0c573d6000803e3d6000fd5b505050506040513d6000823e3d601f19601f82011682018060405250613c359190810190614384565b90506060600084604051613c499190614ecf565b90815260200160405180910390206002018054600181600116156101000203166002900480601f016020809104026020016040519081016040528092919081815260200182805460018160011615610100020316600290048015613cee5780601f10613cc357610100808354040283529160200191613cee565b820191906000526020600020905b815481529060010190602001808311613cd157829003601f168201915b5050505050905073__DidUtils______________________________63c754a53a8584846040518463ffffffff1660e01b8152600401613d309392919061503d565b60206040518083038186803b158015613d4857600080fd5b505af4158015613d5c573d6000803e3d6000fd5b505050506040513d601f19601f82011682018060405250613d8091908101906142b0565b613dbf576040517f08c379a0000000000000000000000000000000000000000000000000000000008152600401613db6906150d9565b60405180910390fd5b606073__DidUtils______________________________63b01bd8178d8d6040518363ffffffff1660e01b8152600401613dfa929190615006565b60006040518083038186803b158015613e1257600080fd5b505af4158015613e26573d6000803e3d6000fd5b505050506040513d6000823e3d601f19601f82011682018060405250613e4f9190810190614384565b905060008c604051613e619190614ecf565b908152602001604051809103902060040160405180608001604052808381526020018c81526020018b815260200160001515815250908060018154018082558091505090600182039060005260206000209060040201600090919290919091506000820151816000019080519060200190613edd929190614091565b506020820151816001019080519060200190613efa929190614091565b506040820151816002019080519060200190613f17929190614091565b5060608201518160030160006101000a81548160ff021916908315150217905550505050505050505050505050505050565b6040518060e001604052806060815260200160608152602001606081526020016060815260200160608152602001613f7f614111565b81525090565b60405180608001604052806060815260200160608152602001606081526020016000151581525090565b6040518060a00160405280606081526020016060815260200160608152602001606081526020016000151581525090565b6040518060a00160405280606081526020016060815260200160608152602001606081526020016000151581525090565b828054600181600116156101000203166002900490600052602060002090601f016020900481019282601f1061405257805160ff1916838001178555614080565b82800160010185558215614080579182015b8281111561407f578251825591602001919060010190614064565b5b50905061408d919061412b565b5090565b828054600181600116156101000203166002900490600052602060002090601f016020900481019282601f106140d257805160ff1916838001178555614100565b82800160010185558215614100579182015b828111156140ff5782518255916020019190600101906140e4565b5b50905061410d919061412b565b5090565b604051806040016040528060608152602001606081525090565b61414d91905b80821115614149576000816000905550600101614131565b5090565b90565b600061415c8235615350565b905092915050565b60006141708251615362565b905092915050565b6000614184823561536e565b905092915050565b6000614198825161536e565b905092915050565b600082601f8301126141b157600080fd5b81356141c46141bf826151a3565b615176565b915080825260208301602083018583830111156141e057600080fd5b6141eb8382846153ed565b50505092915050565b600082601f83011261420557600080fd5b8135614218614213826151cf565b615176565b9150808252602083016020830185838301111561423457600080fd5b61423f8382846153ed565b50505092915050565b600082601f83011261425957600080fd5b815161426c614267826151cf565b615176565b9150808252602083016020830185838301111561428857600080fd5b6142938382846153fc565b50505092915050565b60006142a88235615398565b905092915050565b6000602082840312156142c257600080fd5b60006142d084828501614164565b91505092915050565b6000602082840312156142eb57600080fd5b60006142f98482850161418c565b91505092915050565b60006020828403121561431457600080fd5b600082013567ffffffffffffffff81111561432e57600080fd5b61433a848285016141a0565b91505092915050565b60006020828403121561435557600080fd5b600082013567ffffffffffffffff81111561436f57600080fd5b61437b848285016141f4565b91505092915050565b60006020828403121561439657600080fd5b600082015167ffffffffffffffff8111156143b057600080fd5b6143bc84828501614248565b91505092915050565b6000806000606084860312156143da57600080fd5b600084013567ffffffffffffffff8111156143f457600080fd5b614400868287016141f4565b935050602061441186828701614150565b925050604084013567ffffffffffffffff81111561442e57600080fd5b61443a868287016141f4565b9150509250925092565b60008060008060008060c0878903121561445d57600080fd5b600087013567ffffffffffffffff81111561447757600080fd5b61448389828a016141f4565b965050602061449489828a01614150565b955050604087013567ffffffffffffffff8111156144b157600080fd5b6144bd89828a016141f4565b94505060606144ce89828a0161429c565b93505060806144df89828a01614178565b92505060a06144f089828a01614178565b9150509295509295509295565b6000806040838503121561451057600080fd5b600083013567ffffffffffffffff81111561452a57600080fd5b614536858286016141f4565b925050602083013567ffffffffffffffff81111561455357600080fd5b61455f858286016141f4565b9150509250929050565b60008060006060848603121561457e57600080fd5b600084013567ffffffffffffffff81111561459857600080fd5b6145a4868287016141f4565b935050602084013567ffffffffffffffff8111156145c157600080fd5b6145cd868287016141f4565b925050604084013567ffffffffffffffff8111156145ea57600080fd5b6145f6868287016141f4565b9150509250925092565b6000806000806080858703121561461657600080fd5b600085013567ffffffffffffffff81111561463057600080fd5b61463c878288016141f4565b945050602085013567ffffffffffffffff81111561465957600080fd5b614665878288016141f4565b935050604085013567ffffffffffffffff81111561468257600080fd5b61468e878288016141f4565b925050606085013567ffffffffffffffff8111156146ab57600080fd5b6146b7878288016141f4565b91505092959194509250565b600080600080600080600060e0888a0312156146de57600080fd5b600088013567ffffffffffffffff8111156146f857600080fd5b6147048a828b016141f4565b975050602088013567ffffffffffffffff81111561472157600080fd5b61472d8a828b016141f4565b965050604088013567ffffffffffffffff81111561474a57600080fd5b6147568a828b016141f4565b955050606088013567ffffffffffffffff81111561477357600080fd5b61477f8a828b016141f4565b94505060806147908a828b0161429c565b93505060a06147a18a828b01614178565b92505060c06147b28a828b01614178565b91505092959891949750929550565b60008060008060008060c087890312156147da57600080fd5b600087013567ffffffffffffffff8111156147f457600080fd5b61480089828a016141f4565b965050602087013567ffffffffffffffff81111561481d57600080fd5b61482989828a016141f4565b955050604087013567ffffffffffffffff81111561484657600080fd5b61485289828a016141f4565b945050606061486389828a0161429c565b935050608061487489828a01614178565b92505060a061488589828a01614178565b9150509295509295509295565b600080600080600060a086880312156148aa57600080fd5b600086013567ffffffffffffffff8111156148c457600080fd5b6148d0888289016141f4565b955050602086013567ffffffffffffffff8111156148ed57600080fd5b6148f9888289016141f4565b945050604061490a8882890161429c565b935050606061491b88828901614178565b925050608061492c88828901614178565b9150509295509295909350565b60006149458383614b7d565b905092915050565b60006149598383614da6565b905092915050565b600061496d8383614e31565b905092915050565b61497e816153a5565b82525050565b61498d816152f1565b82525050565b600061499e82615222565b6149a88185615280565b9350836020820285016149ba856151fb565b60005b848110156149f35783830388526149d5838351614939565b92506149e082615259565b91506020880197506001810190506149bd565b508196508694505050505092915050565b6000614a0f8261522d565b614a198185615291565b935083602082028501614a2b85615208565b60005b84811015614a64578383038852614a4683835161494d565b9250614a5182615266565b9150602088019750600181019050614a2e565b508196508694505050505092915050565b6000614a8082615238565b614a8a81856152a2565b935083602082028501614a9c85615215565b60005b84811015614ad5578383038852614ab7838351614961565b9250614ac282615273565b9150602088019750600181019050614a9f565b508196508694505050505092915050565b614aef81615303565b82525050565b614afe8161530f565b82525050565b614b0d816153b7565b82525050565b6000614b1e8261524e565b614b2881856152d5565b9350614b388185602086016153fc565b614b418161542f565b840191505092915050565b6000614b578261524e565b614b6181856152e6565b9350614b718185602086016153fc565b80840191505092915050565b6000614b8882615243565b614b9281856152b3565b9350614ba28185602086016153fc565b614bab8161542f565b840191505092915050565b6000614bc3600e836152c4565b91507f496e76616c696420666f726d61740000000000000000000000000000000000006000830152602082019050919050565b6000614c03600e836152c4565b91507f4e6f74207065726d697373696f6e0000000000000000000000000000000000006000830152602082019050919050565b6000614c436013836152c4565b91507f4e6f6e65206f72204465616374697661746564000000000000000000000000006000830152602082019050919050565b6000614c836010836152c4565b91507f416c726561647920446f63756d656e74000000000000000000000000000000006000830152602082019050919050565b600060c0830160008301518482036000860152614cd38282614993565b91505060208301518482036020860152614ced8282614b7d565b91505060408301518482036040860152614d078282614b7d565b91505060608301518482036060860152614d218282614a04565b91505060808301518482036080860152614d3b8282614a75565b91505060a083015184820360a0860152614d558282614d62565b9150508091505092915050565b60006040830160008301518482036000860152614d7f8282614b7d565b91505060208301518482036020860152614d998282614b7d565b9150508091505092915050565b600060a0830160008301518482036000860152614dc38282614b7d565b91505060208301518482036020860152614ddd8282614b7d565b91505060408301518482036040860152614df78282614b7d565b91505060608301518482036060860152614e118282614b7d565b9150506080830151614e266080860182614ae6565b508091505092915050565b60006080830160008301518482036000860152614e4e8282614b7d565b91505060208301518482036020860152614e688282614b7d565b91505060408301518482036040860152614e828282614b7d565b9150506060830151614e976060860182614ae6565b508091505092915050565b614eab81615339565b82525050565b614eba81615339565b82525050565b614ec981615343565b82525050565b6000614edb8284614b4c565b915081905092915050565b6000602082019050614efb6000830184614984565b92915050565b6000602082019050614f166000830184614975565b92915050565b6000608082019050614f316000830187614af5565b614f3e6020830186614ec0565b614f4b6040830185614af5565b614f586060830184614af5565b95945050505050565b60006020820190508181036000830152614f7b8184614b13565b905092915050565b60006080820190508181036000830152614f9d8187614b13565b9050614fac6020830186614984565b614fb96040830185614eb1565b8181036060830152614fcb8184614b13565b905095945050505050565b60006040820190508181036000830152614ff08185614b13565b9050614fff6020830184614b04565b9392505050565b600060408201905081810360008301526150208185614b13565b905081810360208301526150348184614b13565b90509392505050565b600060608201905081810360008301526150578186614b13565b9050818103602083015261506b8185614b13565b9050818103604083015261507f8184614b13565b9050949350505050565b600060408201905081810360008301526150a38185614b13565b90506150b26020830184614eb1565b9392505050565b600060208201905081810360008301526150d281614bb6565b9050919050565b600060208201905081810360008301526150f281614bf6565b9050919050565b6000602082019050818103600083015261511281614c36565b9050919050565b6000602082019050818103600083015261513281614c76565b9050919050565b600060208201905081810360008301526151538184614cb6565b905092915050565b60006020820190506151706000830184614ea2565b92915050565b6000604051905081810181811067ffffffffffffffff8211171561519957600080fd5b8060405250919050565b600067ffffffffffffffff8211156151ba57600080fd5b601f19601f8301169050602081019050919050565b600067ffffffffffffffff8211156151e657600080fd5b601f19601f8301169050602081019050919050565b6000602082019050919050565b6000602082019050919050565b6000602082019050919050565b600081519050919050565b600081519050919050565b600081519050919050565b600081519050919050565b600081519050919050565b6000602082019050919050565b6000602082019050919050565b6000602082019050919050565b600082825260208201905092915050565b600082825260208201905092915050565b600082825260208201905092915050565b600082825260208201905092915050565b600082825260208201905092915050565b600082825260208201905092915050565b600081905092915050565b60006152fc82615319565b9050919050565b60008115159050919050565b6000819050919050565b600073ffffffffffffffffffffffffffffffffffffffff82169050919050565b6000819050919050565b600060ff82169050919050565b600061535b82615378565b9050919050565b60008115159050919050565b6000819050919050565b600073ffffffffffffffffffffffffffffffffffffffff82169050919050565b600060ff82169050919050565b60006153b0826153c9565b9050919050565b60006153c282615339565b9050919050565b60006153d4826153db565b9050919050565b60006153e682615319565b9050919050565b82818337600083830152505050565b60005b8381101561541a5780820151818401526020810190506153ff565b83811115615429576000848401525b50505050565b6000601f19601f830116905091905056fe4563647361536563703235366b31566572696669636174696f6e4b657932303139a265627a7a723058200a62e3832f1437e639c61ddbe7c985187c7e9c724309ce399c3761c6c23879246c6578706572696d656e74616cf50037",
  "source": "pragma solidity 0.5.6;\npragma experimental ABIEncoderV2;\n\nimport './Storage.sol';\nimport './DidUtils.sol';\n\n\n/**\n * @title DidLedger\n * @dev This contract is did document storage implementation\n */\ncontract DidLedger is Storage{\n    \n    modifier verifyFormat(string memory did){\n        require(DidUtils.verifyDidFormat(did),'Invalid format');\n        _;\n    }\n    \n    modifier onlyOwners(string memory did, address actor){\n        string memory actorDid = DidUtils.genDid(actor);\n        string memory controller = documents[did].controller;\n        require(DidUtils.verifyOwners(did,actorDid,controller),'Not permission');\n        _;\n    }\n    \n    modifier checkActiveDom(string memory did){\n        require(didState[did] == DIDState.Active,\"None or Deactivated\");\n        _;\n    }\n    \n    modifier checkExistDom(){\n        string memory did = DidUtils.genDid(msg.sender);\n        require(didState[did] == DIDState.None,\"Already Document\");\n        _;\n    }\n    \n    function create() public checkExistDom\n    {\n        string memory did = DidUtils.genDid(msg.sender);\n        string memory keyID = DidUtils.genPublicKeyID(did,1);\n        string memory addrKey = DidUtils.genAddrKey(msg.sender);\n        string memory keyType = 'EcdsaSecp256k1RecoveryMethod2020';\n        PublicKey memory defaultKey = PublicKey(keyID,keyType,did,addrKey,false);\n        documents[did].contexts.push(\"https://www.w3.org/ns/did/v1\");\n        documents[did].id = did;\n        documents[did].publicKeys.push(defaultKey);\n        didState[did] = DIDState.Active;\n    }\n    \n    \n    function setController(\n        string memory did, \n        string memory delegate) public\n    {\n        setController(did,delegate,msg.sender);\n    }\n    \n    \n    function setControllerBySign(\n        string memory did, \n        string memory delegate, \n        uint8 v, bytes32 r, bytes32 s) public\n    {\n        setController(did,delegate,recoverSignature(did,'setController',v,r,s));\n    }\n    \n    \n    function setController(\n        string memory did, \n        string memory delegate, \n        address actor) internal\n        verifyFormat(did) verifyFormat(delegate) onlyOwners(did, actor)\n    {\n        documents[did].controller = delegate;\n    }\n    \n    \n    function addPubKey(\n        string memory did,\n        string memory pubKey,\n        string memory controller) public \n    {\n        addPubKey(did,pubKey,controller,msg.sender);        \n    }\n    \n    \n    function addPubKeyBySign(\n        string memory did,\n        string memory pubKey,\n        string memory controller,\n        uint8 v,bytes32 r,bytes32 s) public \n    {\n        addPubKey(did,pubKey,controller,recoverSignature(did,'addPubKey',v,r,s));        \n    }\n    \n    \n    function addPubKey(\n        string memory did,\n        string memory pubKey,\n        string memory controller,\n        address actor) internal \n        verifyFormat(did) verifyFormat(controller) \n        checkActiveDom(did) onlyOwners(did, actor)\n    {\n        uint256 index = documents[did].publicKeys.length;\n        string memory keyID = DidUtils.genPublicKeyID(did,index+1);\n        string memory keyType = 'EcdsaSecp256k1VerificationKey2019';\n        documents[did].publicKeys.push(PublicKey(keyID,keyType,controller,pubKey,false));\n    }\n    \n    \n    function addAddrKey(\n        string memory did,\n        address addr,\n        string memory controller) public\n    {\n        addAddrKey(did,addr,controller,msg.sender);    \n    }\n    \n    \n    function addAddrKeyBySign(\n        string memory did,\n        address addr,\n        string memory controller,\n        uint8 v,bytes32 r,bytes32 s) public\n    {\n        addAddrKey(did,addr,controller,recoverSignature(did,'addAddrKey',v,r,s));        \n    }\n    \n    \n    function addAddrKey(\n        string memory did,\n        address addr,\n        string memory controller,\n        address actor) internal \n        verifyFormat(did) checkActiveDom(did) onlyOwners(did, actor)\n    {\n        uint256 index = documents[did].publicKeys.length;\n        string memory keyID = DidUtils.genPublicKeyID(did,index+1);\n        string memory keyType = 'EcdsaSecp256k1RecoveryMethod2020';\n        string memory keyAddr = DidUtils.genAddrKey(addr);\n        documents[did].publicKeys.push(PublicKey(keyID,keyType,controller,keyAddr,false));  \n    }\n\n    \n    function addService(\n        string memory did,\n        string memory scvID,\n        string memory scvType,\n        string memory scvEndpoint) public \n    {\n        addService(did, scvID, scvType, scvEndpoint, msg.sender);    \n    }\n    \n    function addServiceBySign(\n        string memory did,\n        string memory scvID,\n        string memory scvType,\n        string memory scvEndpoint,\n        uint8 v,bytes32 r,bytes32 s) public \n    {\n        addService(did, scvID, scvType, scvEndpoint, recoverSignature(did,'addService',v,r,s));    \n    }\n\n    //v2\n    function updatePrivacy(\n        string memory did,\n        string memory scvID,\n        string memory hashVal\n    ) public\n    {\n        updatePrivacy(did, scvID, hashVal, msg.sender);\n    }\n\n    //v2\n    function updatePrivacy(\n        string memory did,\n        string memory scvID,\n        string memory hashVal,\n        uint8 v,bytes32 r,bytes32 s\n    ) public\n    {\n        updatePrivacy(did, scvID, hashVal, recoverSignature(did,'updatePrivacy',v,r,s));\n    }  \n\n    //v2\n    function updatePrivacy(\n        string memory did,\n        string memory scvID,\n        string memory hashVal,\n        address actor\n    ) internal\n    verifyFormat(did) checkActiveDom(did) onlyOwners(did, actor)\n    {\n        string memory id = DidUtils.genFragment(did,scvID);\n        documents[did].privacy.scvID = hashVal;\n        documents[did].privacy.hashVal = hashVal;\n    }\n\n\n    function addService(\n        string memory did,\n        string memory scvID,\n        string memory scvType,\n        string memory scvEndpoint,\n        address actor)internal \n        verifyFormat(did) checkActiveDom(did) onlyOwners(did,actor)\n    {\n        string memory id =  DidUtils.genFragment(did,scvID);\n        documents[did].services.push(Service(id,scvType,scvEndpoint,false));\n    }\n\n    function disableKey(\n        string memory did,\n        string memory targetId) public\n    {\n       disableKey(did, targetId, msg.sender);     \n    }\n    \n    function disableKey(\n        string memory did,\n        string memory targetId,\n        uint8 v,bytes32 r,bytes32 s) public \n    {\n        disableKey(did, targetId,recoverSignature(did,'disableKey',v,r,s));    \n    }\n    \n    function disableKey(\n        string memory did,\n        string memory targetId,\n        address actor) \n        internal verifyFormat(did) checkActiveDom(did) onlyOwners(did, actor)    \n    {\n        for(uint256 i=0; i<documents[did].publicKeys.length; i++){\n            string memory id = documents[did].publicKeys[i].id;\n            if(DidUtils.equalString(id,targetId)){\n                documents[did].publicKeys[i].disable = true;\n            }\n        }\n    }\n    \n    function disableService(\n        string memory did,\n        string memory targetId\n        ) public\n    {\n        disableService(did, targetId, msg.sender);        \n    }\n    \n    function disableService(\n        string memory did,\n        string memory targetId,\n        uint8 v,bytes32 r,bytes32 s\n        ) public\n    {\n        disableService(did,targetId,recoverSignature(did,'disableService',v,r,s));\n    }\n    \n    function disableService(\n        string memory did,\n        string memory targetId, \n        address actor) internal\n        verifyFormat(did) checkActiveDom(did) onlyOwners(did,actor)   \n    {\n        for(uint256 i=0; i<documents[did].services.length; i++){\n            string memory id = documents[did].services[i].id;\n            if(DidUtils.equalString(id,targetId)){\n                documents[did].services[i].disable = true;\n            }\n        }\n    }\n    \n    function deactivatedDom(string memory did) \n        public\n        verifyFormat(did)\n        checkActiveDom(did)\n        onlyOwners(did, msg.sender)   \n    {\n        didState[did] = DIDState.Deactivated;\n    } \n\n    \n    function getDocument(string memory did) public view \n        verifyFormat(did) \n        returns(Document memory) \n    {\n        Document memory dom = documents[did];\n        for(uint256 i=0;i<dom.services.length;i++){\n            if(dom.services[i].disable) delete dom.services[i];\n        }\n        for(uint256 i=0;i<dom.publicKeys.length;i++){\n            if(dom.publicKeys[i].disable) delete dom.publicKeys[i];\n        }\n        return  dom;\n    }\n    \n    function recoverSignature(\n        string memory did, \n        string memory fType, \n        uint8 sigV, bytes32 sigR, bytes32 sigS) internal \n        returns(address)\n    {\n        bytes32 hash =  DidUtils.genSignHash(fType, address(this), nonce[did], did);\n        address signer = ecrecover(hash, sigV, sigR, sigS);\n        nonce[did]++;\n        return signer;\n    }\n}",
  "sourcePath": "/home/pslabmh/Desktop/privacy-project/did-registry-eth/contracts/DIDLedger.sol",
  "compiler": {
    "name": "solc",
    "version": "0.5.6+commit.b259423e.Emscripten.clang"
  },
  "schemaVersion": "3.3.2",
  "updatedAt": "2021-01-06T08:19:15.213Z",
  "networkType": "ethereum",
  "devdoc": {
    "details": "This contract is did document storage implementation",
    "methods": {},
    "title": "DidLedger"
  },
  "userdoc": {
    "methods": {}
  }
}